{
  "contractName": "fileProtect",
  "abi": [
    {
      "inputs": [
        {
          "internalType": "address",
          "name": "user",
          "type": "address"
        },
        {
          "internalType": "string",
          "name": "name",
          "type": "string"
        },
        {
          "internalType": "string",
          "name": "fileT",
          "type": "string"
        }
      ],
      "name": "addFile",
      "outputs": [],
      "stateMutability": "nonpayable",
      "type": "function"
    },
    {
      "inputs": [],
      "name": "viewFiles",
      "outputs": [
        {
          "internalType": "address[]",
          "name": "",
          "type": "address[]"
        },
        {
          "internalType": "string[]",
          "name": "",
          "type": "string[]"
        },
        {
          "internalType": "string[]",
          "name": "",
          "type": "string[]"
        },
        {
          "internalType": "address[][]",
          "name": "",
          "type": "address[][]"
        }
      ],
      "stateMutability": "view",
      "type": "function",
      "constant": true
    },
    {
      "inputs": [
        {
          "internalType": "string",
          "name": "file",
          "type": "string"
        },
        {
          "internalType": "address",
          "name": "user",
          "type": "address"
        }
      ],
      "name": "addToken",
      "outputs": [],
      "stateMutability": "nonpayable",
      "type": "function"
    },
    {
      "inputs": [
        {
          "internalType": "string",
          "name": "file",
          "type": "string"
        },
        {
          "internalType": "address",
          "name": "user",
          "type": "address"
        }
      ],
      "name": "removeToken",
      "outputs": [],
      "stateMutability": "nonpayable",
      "type": "function"
    }
  ],
  "bytecode": "0x608060405234801561001057600080fd5b506113fa806100206000396000f3fe608060405234801561001057600080fd5b506004361061004c5760003560e01c80632a8b051814610051578063b0b22c2c14610072578063e3c5c2a91461008e578063e640f965146100aa575b600080fd5b6100596100c6565b6040516100699493929190610c8c565b60405180910390f35b61008c60048036038101906100879190610e62565b6103df565b005b6100a860048036038101906100a39190610e62565b6104f7565b005b6100c460048036038101906100bf9190610ebe565b6106c2565b005b60608060608060006002600160038380548060200260200160405190810160405280929190818152602001828054801561015557602002820191906000526020600020905b8160009054906101000a900473ffffffffffffffffffffffffffffffffffffffff1673ffffffffffffffffffffffffffffffffffffffff168152602001906001019080831161010b575b5050505050935082805480602002602001604051908101604052809291908181526020016000905b8282101561022957838290600052602060002001805461019c90610f78565b80601f01602080910402602001604051908101604052809291908181526020018280546101c890610f78565b80156102155780601f106101ea57610100808354040283529160200191610215565b820191906000526020600020905b8154815290600101906020018083116101f857829003601f168201915b50505050508152602001906001019061017d565b50505050925081805480602002602001604051908101604052809291908181526020016000905b828210156102fc57838290600052602060002001805461026f90610f78565b80601f016020809104026020016040519081016040528092919081815260200182805461029b90610f78565b80156102e85780601f106102bd576101008083540402835291602001916102e8565b820191906000526020600020905b8154815290600101906020018083116102cb57829003601f168201915b505050505081526020019060010190610250565b50505050915080805480602002602001604051908101604052809291908181526020016000905b828210156103cb578382906000526020600020018054806020026020016040519081016040528092919081815260200182805480156103b757602002820191906000526020600020905b8160009054906101000a900473ffffffffffffffffffffffffffffffffffffffff1673ffffffffffffffffffffffffffffffffffffffff168152602001906001019080831161036d575b505050505081526020019060010190610323565b505050509050935093509350935090919293565b60005b6001805490508110156104f2576001818154811061040357610402610fa9565b5b9060005260206000200160405160200161041d919061107b565b604051602081830303815290604052805190602001208360405160200161044491906110c3565b60405160208183030381529060405280519060200120036104df576003818154811061047357610472610fa9565b5b90600052602060002001829080600181540180825580915050600190039060005260206000200160009091909190916101000a81548173ffffffffffffffffffffffffffffffffffffffff021916908373ffffffffffffffffffffffffffffffffffffffff1602179055505b80806104ea90611113565b9150506103e2565b505050565b600080600091505b6001805490508210156106bc57600182815481106105205761051f610fa9565b5b9060005260206000200160405160200161053a919061107b565b604051602081830303815290604052805190602001208460405160200161056191906110c3565b60405160208183030381529060405280519060200120036106a957600090505b6003828154811061059557610594610fa9565b5b90600052602060002001805490508110156106a8578273ffffffffffffffffffffffffffffffffffffffff16600383815481106105d5576105d4610fa9565b5b9060005260206000200182815481106105f1576105f0610fa9565b5b9060005260206000200160009054906101000a900473ffffffffffffffffffffffffffffffffffffffff1673ffffffffffffffffffffffffffffffffffffffff1603610695576003828154811061064b5761064a610fa9565b5b90600052602060002001818154811061066757610666610fa9565b5b9060005260206000200160006101000a81549073ffffffffffffffffffffffffffffffffffffffff02191690555b80806106a090611113565b915050610581565b5b81806106b490611113565b9250506104ff565b50505050565b6004816040516106d291906110c3565b908152602001604051809103902060009054906101000a900460ff16156106f857600080fd5b600160048260405161070a91906110c3565b908152602001604051809103902060006101000a81548160ff0219169083151502179055506000839080600181540180825580915050600190039060005260206000200160009091909190916101000a81548173ffffffffffffffffffffffffffffffffffffffff021916908373ffffffffffffffffffffffffffffffffffffffff1602179055506002829080600181540180825580915050600190039060005260206000200160009091909190915090816107c691906112f2565b506001819080600181540180825580915050600190039060005260206000200160009091909190915090816107fb91906112f2565b50600360405180602001604052808573ffffffffffffffffffffffffffffffffffffffff1673ffffffffffffffffffffffffffffffffffffffff168152509080600181540180825580915050600190039060005260206000200160009091909190915090600161086c929190610872565b50505050565b8280548282559060005260206000209081019282156108eb579160200282015b828111156108ea5782518260006101000a81548173ffffffffffffffffffffffffffffffffffffffff021916908373ffffffffffffffffffffffffffffffffffffffff16021790555091602001919060010190610892565b5b5090506108f891906108fc565b5090565b5b808211156109155760008160009055506001016108fd565b5090565b600081519050919050565b600082825260208201905092915050565b6000819050602082019050919050565b600073ffffffffffffffffffffffffffffffffffffffff82169050919050565b600061097082610945565b9050919050565b61098081610965565b82525050565b60006109928383610977565b60208301905092915050565b6000602082019050919050565b60006109b682610919565b6109c08185610924565b93506109cb83610935565b8060005b838110156109fc5781516109e38882610986565b97506109ee8361099e565b9250506001810190506109cf565b5085935050505092915050565b600081519050919050565b600082825260208201905092915050565b6000819050602082019050919050565b600081519050919050565b600082825260208201905092915050565b60005b83811015610a6f578082015181840152602081019050610a54565b60008484015250505050565b6000601f19601f8301169050919050565b6000610a9782610a35565b610aa18185610a40565b9350610ab1818560208601610a51565b610aba81610a7b565b840191505092915050565b6000610ad18383610a8c565b905092915050565b6000602082019050919050565b6000610af182610a09565b610afb8185610a14565b935083602082028501610b0d85610a25565b8060005b85811015610b495784840389528151610b2a8582610ac5565b9450610b3583610ad9565b925060208a01995050600181019050610b11565b50829750879550505050505092915050565b600081519050919050565b600082825260208201905092915050565b6000819050602082019050919050565b600082825260208201905092915050565b6000610ba382610919565b610bad8185610b87565b9350610bb883610935565b8060005b83811015610be9578151610bd08882610986565b9750610bdb8361099e565b925050600181019050610bbc565b5085935050505092915050565b6000610c028383610b98565b905092915050565b6000602082019050919050565b6000610c2282610b5b565b610c2c8185610b66565b935083602082028501610c3e85610b77565b8060005b85811015610c7a5784840389528151610c5b8582610bf6565b9450610c6683610c0a565b925060208a01995050600181019050610c42565b50829750879550505050505092915050565b60006080820190508181036000830152610ca681876109ab565b90508181036020830152610cba8186610ae6565b90508181036040830152610cce8185610ae6565b90508181036060830152610ce28184610c17565b905095945050505050565b6000604051905090565b600080fd5b600080fd5b600080fd5b600080fd5b7f4e487b7100000000000000000000000000000000000000000000000000000000600052604160045260246000fd5b610d4382610a7b565b810181811067ffffffffffffffff82111715610d6257610d61610d0b565b5b80604052505050565b6000610d75610ced565b9050610d818282610d3a565b919050565b600067ffffffffffffffff821115610da157610da0610d0b565b5b610daa82610a7b565b9050602081019050919050565b82818337600083830152505050565b6000610dd9610dd484610d86565b610d6b565b905082815260208101848484011115610df557610df4610d06565b5b610e00848285610db7565b509392505050565b600082601f830112610e1d57610e1c610d01565b5b8135610e2d848260208601610dc6565b91505092915050565b610e3f81610965565b8114610e4a57600080fd5b50565b600081359050610e5c81610e36565b92915050565b60008060408385031215610e7957610e78610cf7565b5b600083013567ffffffffffffffff811115610e9757610e96610cfc565b5b610ea385828601610e08565b9250506020610eb485828601610e4d565b9150509250929050565b600080600060608486031215610ed757610ed6610cf7565b5b6000610ee586828701610e4d565b935050602084013567ffffffffffffffff811115610f0657610f05610cfc565b5b610f1286828701610e08565b925050604084013567ffffffffffffffff811115610f3357610f32610cfc565b5b610f3f86828701610e08565b9150509250925092565b7f4e487b7100000000000000000000000000000000000000000000000000000000600052602260045260246000fd5b60006002820490506001821680610f9057607f821691505b602082108103610fa357610fa2610f49565b5b50919050565b7f4e487b7100000000000000000000000000000000000000000000000000000000600052603260045260246000fd5b600081905092915050565b60008190508160005260206000209050919050565b6000815461100581610f78565b61100f8186610fd8565b9450600182166000811461102a576001811461103f57611072565b60ff1983168652811515820286019350611072565b61104885610fe3565b60005b8381101561106a5781548189015260018201915060208101905061104b565b838801955050505b50505092915050565b60006110878284610ff8565b915081905092915050565b600061109d82610a35565b6110a78185610fd8565b93506110b7818560208601610a51565b80840191505092915050565b60006110cf8284611092565b915081905092915050565b7f4e487b7100000000000000000000000000000000000000000000000000000000600052601160045260246000fd5b6000819050919050565b600061111e82611109565b91507fffffffffffffffffffffffffffffffffffffffffffffffffffffffffffffffff82036111505761114f6110da565b5b600182019050919050565b60006020601f8301049050919050565b600082821b905092915050565b6000600883026111a87fffffffffffffffffffffffffffffffffffffffffffffffffffffffffffffffff8261116b565b6111b2868361116b565b95508019841693508086168417925050509392505050565b6000819050919050565b60006111ef6111ea6111e584611109565b6111ca565b611109565b9050919050565b6000819050919050565b611209836111d4565b61121d611215826111f6565b848454611178565b825550505050565b600090565b611232611225565b61123d818484611200565b505050565b5b818110156112615761125660008261122a565b600181019050611243565b5050565b601f8211156112a65761127781610fe3565b6112808461115b565b8101602085101561128f578190505b6112a361129b8561115b565b830182611242565b50505b505050565b600082821c905092915050565b60006112c9600019846008026112ab565b1980831691505092915050565b60006112e283836112b8565b9150826002028217905092915050565b6112fb82610a35565b67ffffffffffffffff81111561131457611313610d0b565b5b61131e8254610f78565b611329828285611265565b600060209050601f83116001811461135c576000841561134a578287015190505b61135485826112d6565b8655506113bc565b601f19841661136a86610fe3565b60005b828110156113925784890151825560018201915060208501945060208101905061136d565b868310156113af57848901516113ab601f8916826112b8565b8355505b6001600288020188555050505b50505050505056fea26469706673582212201bff3b72471f27ebbf0dd0cefb1e399a00e6c75273962f9bfdd8d7a3b077f66764736f6c63430008120033",
  "immutableReferences": {},
  "source": "// SPDX-License-Identifier: MIT\npragma solidity >=0.4.22 <0.9.0;\n\ncontract fileProtect {\n  address[] _users;\n  string[] _files;\n  string[] _names;\n  address[][] _tokens;\n\n  mapping(string=>bool) files;\n\n  function addFile(address user,string memory name,string memory fileT) public {\n    require(!files[fileT]);\n\n    files[fileT]=true;\n    _users.push(user);\n    _names.push(name);\n    _files.push(fileT);\n    _tokens.push([user]);\n  }\n\n  function viewFiles() public view returns(address[] memory,string[] memory,string[] memory,address[][] memory){\n    return(_users,_names,_files,_tokens);\n  }\n\n  function addToken(string memory file,address user) public {\n    uint i;\n    \n    for(i=0;i<_files.length;i++){\n        if(keccak256(abi.encodePacked(file)) == keccak256(abi.encodePacked(_files[i]))){\n            _tokens[i].push(user);\n        }\n    }\n  }\n\n  function removeToken(string memory file,address user) public {\n    uint i;\n    uint j;\n\n    for(i=0;i<_files.length;i++){\n        if(keccak256(abi.encodePacked(file)) == keccak256(abi.encodePacked(_files[i]))){\n            for(j=0;j<_tokens[i].length;j++){\n                if(_tokens[i][j]==user){\n                    delete _tokens[i][j];\n                }\n            }\n        }\n    }\n  }\n}\n",
  "sourcePath": "/Users/ms/Desktop/personal-identity-security/contracts/file.sol",
  "compiler": {
    "name": "solc",
    "version": "0.8.18+commit.87f61d96.Emscripten.clang"
  },
  "schemaVersion": "3.4.8",
  "updatedAt": "2023-02-22T08:14:24.362Z",
  "networkType": "ethereum",
  "devdoc": {
    "kind": "dev",
    "methods": {},
    "version": 1
  },
  "userdoc": {
    "kind": "user",
    "methods": {},
    "version": 1
  }
}